{
  "_format": "hh-sol-artifact-1",
  "contractName": "Payment",
  "sourceName": "contracts/Payment.sol",
  "abi": [
    {
      "anonymous": false,
      "inputs": [
        {
          "indexed": true,
          "internalType": "address",
          "name": "payer",
          "type": "address"
        },
        {
          "indexed": false,
          "internalType": "uint256",
          "name": "amount",
          "type": "uint256"
        },
        {
          "indexed": false,
          "internalType": "string",
          "name": "orderId",
          "type": "string"
        }
      ],
      "name": "PaymentReceived",
      "type": "event"
    },
    {
      "inputs": [
        {
          "internalType": "string",
          "name": "orderId",
          "type": "string"
        }
      ],
      "name": "pay",
      "outputs": [],
      "stateMutability": "payable",
      "type": "function"
    }
  ],
  "bytecode": "0x608060405234801561001057600080fd5b506102df806100206000396000f3fe60806040526004361061001e5760003560e01c80632b66d72e14610023575b600080fd5b61003d60048036038101906100389190610147565b61003f565b005b60003411610082576040517f08c379a0000000000000000000000000000000000000000000000000000000008152600401610079906101f1565b60405180910390fd5b3373ffffffffffffffffffffffffffffffffffffffff167f8dfc1109af223bb7f4e48f38a8a7631f492f0106b90747a651bf181b0fc4e4023484846040516100cc93929190610277565b60405180910390a25050565b600080fd5b600080fd5b600080fd5b600080fd5b600080fd5b60008083601f840112610107576101066100e2565b5b8235905067ffffffffffffffff811115610124576101236100e7565b5b6020830191508360018202830111156101405761013f6100ec565b5b9250929050565b6000806020838503121561015e5761015d6100d8565b5b600083013567ffffffffffffffff81111561017c5761017b6100dd565b5b610188858286016100f1565b92509250509250929050565b600082825260208201905092915050565b7f5061796d656e74206d7573742062652067726561746572207468616e20300000600082015250565b60006101db601e83610194565b91506101e6826101a5565b602082019050919050565b6000602082019050818103600083015261020a816101ce565b9050919050565b6000819050919050565b61022481610211565b82525050565b82818337600083830152505050565b6000601f19601f8301169050919050565b60006102568385610194565b935061026383858461022a565b61026c83610239565b840190509392505050565b600060408201905061028c600083018661021b565b818103602083015261029f81848661024a565b905094935050505056fea26469706673582212203afcc4a85d01bab0019fd33e6fe0b208aea588df882e755c2a38b0b1ef89839564736f6c63430008140033",
  "linkReferences": {},
  "deployedLinkReferences": {}
}