{
  "_format": "hh-sol-artifact-1",
  "contractName": "TransactionRegistry",
  "sourceName": "contracts/TransactionRegistry.sol",
  "abi": [
    {
      "anonymous": false,
      "inputs": [
        {
          "indexed": true,
          "internalType": "uint256",
          "name": "id",
          "type": "uint256"
        },
        {
          "indexed": false,
          "internalType": "string",
          "name": "txId",
          "type": "string"
        },
        {
          "indexed": true,
          "internalType": "address",
          "name": "buyer",
          "type": "address"
        },
        {
          "indexed": true,
          "internalType": "address",
          "name": "seller",
          "type": "address"
        },
        {
          "indexed": false,
          "internalType": "uint256",
          "name": "amount",
          "type": "uint256"
        },
        {
          "indexed": false,
          "internalType": "string",
          "name": "metadata",
          "type": "string"
        },
        {
          "indexed": false,
          "internalType": "uint256",
          "name": "timestamp",
          "type": "uint256"
        }
      ],
      "name": "TransactionRegistered",
      "type": "event"
    },
    {
      "inputs": [
        {
          "internalType": "uint256",
          "name": "id",
          "type": "uint256"
        }
      ],
      "name": "getTransaction",
      "outputs": [
        {
          "internalType": "string",
          "name": "",
          "type": "string"
        },
        {
          "internalType": "address",
          "name": "",
          "type": "address"
        },
        {
          "internalType": "address",
          "name": "",
          "type": "address"
        },
        {
          "internalType": "uint256",
          "name": "",
          "type": "uint256"
        },
        {
          "internalType": "string",
          "name": "",
          "type": "string"
        },
        {
          "internalType": "uint256",
          "name": "",
          "type": "uint256"
        }
      ],
      "stateMutability": "view",
      "type": "function"
    },
    {
      "inputs": [
        {
          "internalType": "string",
          "name": "txId",
          "type": "string"
        },
        {
          "internalType": "address",
          "name": "buyer",
          "type": "address"
        },
        {
          "internalType": "address",
          "name": "seller",
          "type": "address"
        },
        {
          "internalType": "uint256",
          "name": "amount",
          "type": "uint256"
        },
        {
          "internalType": "string",
          "name": "metadata",
          "type": "string"
        }
      ],
      "name": "registerTransaction",
      "outputs": [
        {
          "internalType": "uint256",
          "name": "",
          "type": "uint256"
        }
      ],
      "stateMutability": "nonpayable",
      "type": "function"
    },
    {
      "inputs": [
        {
          "internalType": "uint256",
          "name": "",
          "type": "uint256"
        }
      ],
      "name": "transactions",
      "outputs": [
        {
          "internalType": "string",
          "name": "txId",
          "type": "string"
        },
        {
          "internalType": "address",
          "name": "buyer",
          "type": "address"
        },
        {
          "internalType": "address",
          "name": "seller",
          "type": "address"
        },
        {
          "internalType": "uint256",
          "name": "amount",
          "type": "uint256"
        },
        {
          "internalType": "string",
          "name": "metadata",
          "type": "string"
        },
        {
          "internalType": "uint256",
          "name": "timestamp",
          "type": "uint256"
        }
      ],
      "stateMutability": "view",
      "type": "function"
    }
  ],
  "bytecode": "0x608060405234801561001057600080fd5b50610dc5806100206000396000f3fe608060405234801561001057600080fd5b50600436106100415760003560e01c80630b0297321461004657806333ea3dc8146100765780639ace38c2146100ab575b600080fd5b610060600480360381019061005b919061079f565b6100e0565b60405161006d919061086a565b60405180910390f35b610090600480360381019061008b9190610885565b610346565b6040516100a296959493929190610951565b60405180910390f35b6100c560048036038101906100c09190610885565b610500565b6040516100d796959493929190610951565b60405180910390f35b600080600080549050905060006040518060c001604052808b8b8080601f016020809104026020016040519081016040528093929190818152602001838380828437600081840152601f19601f8201169050808301925050505050505081526020018973ffffffffffffffffffffffffffffffffffffffff1681526020018873ffffffffffffffffffffffffffffffffffffffff16815260200187815260200186868080601f016020809104026020016040519081016040528093929190818152602001838380828437600081840152601f19601f820116905080830192505050505050508152602001428152509080600181540180825580915050600190039060005260206000209060060201600090919091909150600082015181600001908161020c9190610bfb565b5060208201518160010160006101000a81548173ffffffffffffffffffffffffffffffffffffffff021916908373ffffffffffffffffffffffffffffffffffffffff16021790555060408201518160020160006101000a81548173ffffffffffffffffffffffffffffffffffffffff021916908373ffffffffffffffffffffffffffffffffffffffff1602179055506060820151816003015560808201518160040190816102ba9190610bfb565b5060a0820151816005015550508573ffffffffffffffffffffffffffffffffffffffff168773ffffffffffffffffffffffffffffffffffffffff16827f015d48725d80f98f43d37eda734a0c13d97f082c6a9f137d9b31b26411a24f968c8c8a8a8a4260405161032f96959493929190610d09565b60405180910390a480915050979650505050505050565b6060600080600060606000806000888154811061036657610365610d60565b5b90600052602060002090600602019050806000018160010160009054906101000a900473ffffffffffffffffffffffffffffffffffffffff168260020160009054906101000a900473ffffffffffffffffffffffffffffffffffffffff1683600301548460040185600501548580546103de90610a1e565b80601f016020809104026020016040519081016040528092919081815260200182805461040a90610a1e565b80156104575780601f1061042c57610100808354040283529160200191610457565b820191906000526020600020905b81548152906001019060200180831161043a57829003601f168201915b5050505050955081805461046a90610a1e565b80601f016020809104026020016040519081016040528092919081815260200182805461049690610a1e565b80156104e35780601f106104b8576101008083540402835291602001916104e3565b820191906000526020600020905b8154815290600101906020018083116104c657829003601f168201915b505050505091509650965096509650965096505091939550919395565b6000818154811061051057600080fd5b906000526020600020906006020160009150905080600001805461053390610a1e565b80601f016020809104026020016040519081016040528092919081815260200182805461055f90610a1e565b80156105ac5780601f10610581576101008083540402835291602001916105ac565b820191906000526020600020905b81548152906001019060200180831161058f57829003601f168201915b5050505050908060010160009054906101000a900473ffffffffffffffffffffffffffffffffffffffff16908060020160009054906101000a900473ffffffffffffffffffffffffffffffffffffffff169080600301549080600401805461061390610a1e565b80601f016020809104026020016040519081016040528092919081815260200182805461063f90610a1e565b801561068c5780601f106106615761010080835404028352916020019161068c565b820191906000526020600020905b81548152906001019060200180831161066f57829003601f168201915b5050505050908060050154905086565b600080fd5b600080fd5b600080fd5b600080fd5b600080fd5b60008083601f8401126106cb576106ca6106a6565b5b8235905067ffffffffffffffff8111156106e8576106e76106ab565b5b602083019150836001820283011115610704576107036106b0565b5b9250929050565b600073ffffffffffffffffffffffffffffffffffffffff82169050919050565b60006107368261070b565b9050919050565b6107468161072b565b811461075157600080fd5b50565b6000813590506107638161073d565b92915050565b6000819050919050565b61077c81610769565b811461078757600080fd5b50565b60008135905061079981610773565b92915050565b600080600080600080600060a0888a0312156107be576107bd61069c565b5b600088013567ffffffffffffffff8111156107dc576107db6106a1565b5b6107e88a828b016106b5565b975097505060206107fb8a828b01610754565b955050604061080c8a828b01610754565b945050606061081d8a828b0161078a565b935050608088013567ffffffffffffffff81111561083e5761083d6106a1565b5b61084a8a828b016106b5565b925092505092959891949750929550565b61086481610769565b82525050565b600060208201905061087f600083018461085b565b92915050565b60006020828403121561089b5761089a61069c565b5b60006108a98482850161078a565b91505092915050565b600081519050919050565b600082825260208201905092915050565b60005b838110156108ec5780820151818401526020810190506108d1565b60008484015250505050565b6000601f19601f8301169050919050565b6000610914826108b2565b61091e81856108bd565b935061092e8185602086016108ce565b610937816108f8565b840191505092915050565b61094b8161072b565b82525050565b600060c082019050818103600083015261096b8189610909565b905061097a6020830188610942565b6109876040830187610942565b610994606083018661085b565b81810360808301526109a68185610909565b90506109b560a083018461085b565b979650505050505050565b7f4e487b7100000000000000000000000000000000000000000000000000000000600052604160045260246000fd5b7f4e487b7100000000000000000000000000000000000000000000000000000000600052602260045260246000fd5b60006002820490506001821680610a3657607f821691505b602082108103610a4957610a486109ef565b5b50919050565b60008190508160005260206000209050919050565b60006020601f8301049050919050565b600082821b905092915050565b600060088302610ab17fffffffffffffffffffffffffffffffffffffffffffffffffffffffffffffffff82610a74565b610abb8683610a74565b95508019841693508086168417925050509392505050565b6000819050919050565b6000610af8610af3610aee84610769565b610ad3565b610769565b9050919050565b6000819050919050565b610b1283610add565b610b26610b1e82610aff565b848454610a81565b825550505050565b600090565b610b3b610b2e565b610b46818484610b09565b505050565b5b81811015610b6a57610b5f600082610b33565b600181019050610b4c565b5050565b601f821115610baf57610b8081610a4f565b610b8984610a64565b81016020851015610b98578190505b610bac610ba485610a64565b830182610b4b565b50505b505050565b600082821c905092915050565b6000610bd260001984600802610bb4565b1980831691505092915050565b6000610beb8383610bc1565b9150826002028217905092915050565b610c04826108b2565b67ffffffffffffffff811115610c1d57610c1c6109c0565b5b610c278254610a1e565b610c32828285610b6e565b600060209050601f831160018114610c655760008415610c53578287015190505b610c5d8582610bdf565b865550610cc5565b601f198416610c7386610a4f565b60005b82811015610c9b57848901518255600182019150602085019450602081019050610c76565b86831015610cb85784890151610cb4601f891682610bc1565b8355505b6001600288020188555050505b505050505050565b82818337600083830152505050565b6000610ce883856108bd565b9350610cf5838584610ccd565b610cfe836108f8565b840190509392505050565b60006080820190508181036000830152610d2481888a610cdc565b9050610d33602083018761085b565b8181036040830152610d46818587610cdc565b9050610d55606083018461085b565b979650505050505050565b7f4e487b7100000000000000000000000000000000000000000000000000000000600052603260045260246000fdfea2646970667358221220699ad8596df5f1aa88ef995dc977d541b06ad1b11ba52c6376be2d75ecbf890a64736f6c63430008140033",
  "linkReferences": {},
  "deployedLinkReferences": {}
}