{"contracts/Payment.sol":{"Payment":{"abi":[{"anonymous":false,"inputs":[{"indexed":true,"internalType":"address","name":"payer","type":"address"},{"indexed":false,"internalType":"uint256","name":"amount","type":"uint256"},{"indexed":false,"internalType":"string","name":"orderId","type":"string"}],"name":"PaymentReceived","type":"event"},{"inputs":[{"internalType":"string","name":"orderId","type":"string"}],"name":"pay","outputs":[],"stateMutability":"payable","type":"function"}],"evm":{"bytecode":{"linkReferences":{},"object":"608060405234801561001057600080fd5b506102df806100206000396000f3fe60806040526004361061001e5760003560e01c80632b66d72e14610023575b600080fd5b61003d60048036038101906100389190610147565b61003f565b005b60003411610082576040517f08c379a0000000000000000000000000000000000000000000000000000000008152600401610079906101f1565b60405180910390fd5b3373ffffffffffffffffffffffffffffffffffffffff167f8dfc1109af223bb7f4e48f38a8a7631f492f0106b90747a651bf181b0fc4e4023484846040516100cc93929190610277565b60405180910390a25050565b600080fd5b600080fd5b600080fd5b600080fd5b600080fd5b60008083601f840112610107576101066100e2565b5b8235905067ffffffffffffffff811115610124576101236100e7565b5b6020830191508360018202830111156101405761013f6100ec565b5b9250929050565b6000806020838503121561015e5761015d6100d8565b5b600083013567ffffffffffffffff81111561017c5761017b6100dd565b5b610188858286016100f1565b92509250509250929050565b600082825260208201905092915050565b7f5061796d656e74206d7573742062652067726561746572207468616e20300000600082015250565b60006101db601e83610194565b91506101e6826101a5565b602082019050919050565b6000602082019050818103600083015261020a816101ce565b9050919050565b6000819050919050565b61022481610211565b82525050565b82818337600083830152505050565b6000601f19601f8301169050919050565b60006102568385610194565b935061026383858461022a565b61026c83610239565b840190509392505050565b600060408201905061028c600083018661021b565b818103602083015261029f81848661024a565b905094935050505056fea26469706673582212203afcc4a85d01bab0019fd33e6fe0b208aea588df882e755c2a38b0b1ef89839564736f6c63430008140033","opcodes":"PUSH1 0x80 PUSH1 0x40 MSTORE CALLVALUE DUP1 ISZERO PUSH2 0x10 JUMPI PUSH1 0x0 DUP1 REVERT JUMPDEST POP PUSH2 0x2DF DUP1 PUSH2 0x20 PUSH1 0x0 CODECOPY PUSH1 0x0 RETURN INVALID PUSH1 0x80 PUSH1 0x40 MSTORE PUSH1 0x4 CALLDATASIZE LT PUSH2 0x1E JUMPI PUSH1 0x0 CALLDATALOAD PUSH1 0xE0 SHR DUP1 PUSH4 0x2B66D72E EQ PUSH2 0x23 JUMPI JUMPDEST PUSH1 0x0 DUP1 REVERT JUMPDEST PUSH2 0x3D PUSH1 0x4 DUP1 CALLDATASIZE SUB DUP2 ADD SWAP1 PUSH2 0x38 SWAP2 SWAP1 PUSH2 0x147 JUMP JUMPDEST PUSH2 0x3F JUMP JUMPDEST STOP JUMPDEST PUSH1 0x0 CALLVALUE GT PUSH2 0x82 JUMPI PUSH1 0x40 MLOAD PUSH32 0x8C379A000000000000000000000000000000000000000000000000000000000 DUP2 MSTORE PUSH1 0x4 ADD PUSH2 0x79 SWAP1 PUSH2 0x1F1 JUMP JUMPDEST PUSH1 0x40 MLOAD DUP1 SWAP2 SUB SWAP1 REVERT JUMPDEST CALLER PUSH20 0xFFFFFFFFFFFFFFFFFFFFFFFFFFFFFFFFFFFFFFFF AND PUSH32 0x8DFC1109AF223BB7F4E48F38A8A7631F492F0106B90747A651BF181B0FC4E402 CALLVALUE DUP5 DUP5 PUSH1 0x40 MLOAD PUSH2 0xCC SWAP4 SWAP3 SWAP2 SWAP1 PUSH2 0x277 JUMP JUMPDEST PUSH1 0x40 MLOAD DUP1 SWAP2 SUB SWAP1 LOG2 POP POP JUMP JUMPDEST PUSH1 0x0 DUP1 REVERT JUMPDEST PUSH1 0x0 DUP1 REVERT JUMPDEST PUSH1 0x0 DUP1 REVERT JUMPDEST PUSH1 0x0 DUP1 REVERT JUMPDEST PUSH1 0x0 DUP1 REVERT JUMPDEST PUSH1 0x0 DUP1 DUP4 PUSH1 0x1F DUP5 ADD SLT PUSH2 0x107 JUMPI PUSH2 0x106 PUSH2 0xE2 JUMP JUMPDEST JUMPDEST DUP3 CALLDATALOAD SWAP1 POP PUSH8 0xFFFFFFFFFFFFFFFF DUP2 GT ISZERO PUSH2 0x124 JUMPI PUSH2 0x123 PUSH2 0xE7 JUMP JUMPDEST JUMPDEST PUSH1 0x20 DUP4 ADD SWAP2 POP DUP4 PUSH1 0x1 DUP3 MUL DUP4 ADD GT ISZERO PUSH2 0x140 JUMPI PUSH2 0x13F PUSH2 0xEC JUMP JUMPDEST JUMPDEST SWAP3 POP SWAP3 SWAP1 POP JUMP JUMPDEST PUSH1 0x0 DUP1 PUSH1 0x20 DUP4 DUP6 SUB SLT ISZERO PUSH2 0x15E JUMPI PUSH2 0x15D PUSH2 0xD8 JUMP JUMPDEST JUMPDEST PUSH1 0x0 DUP4 ADD CALLDATALOAD PUSH8 0xFFFFFFFFFFFFFFFF DUP2 GT ISZERO PUSH2 0x17C JUMPI PUSH2 0x17B PUSH2 0xDD JUMP JUMPDEST JUMPDEST PUSH2 0x188 DUP6 DUP3 DUP7 ADD PUSH2 0xF1 JUMP JUMPDEST SWAP3 POP SWAP3 POP POP SWAP3 POP SWAP3 SWAP1 POP JUMP JUMPDEST PUSH1 0x0 DUP3 DUP3 MSTORE PUSH1 0x20 DUP3 ADD SWAP1 POP SWAP3 SWAP2 POP POP JUMP JUMPDEST PUSH32 0x5061796D656E74206D7573742062652067726561746572207468616E20300000 PUSH1 0x0 DUP3 ADD MSTORE POP JUMP JUMPDEST PUSH1 0x0 PUSH2 0x1DB PUSH1 0x1E DUP4 PUSH2 0x194 JUMP JUMPDEST SWAP2 POP PUSH2 0x1E6 DUP3 PUSH2 0x1A5 JUMP JUMPDEST PUSH1 0x20 DUP3 ADD SWAP1 POP SWAP2 SWAP1 POP JUMP JUMPDEST PUSH1 0x0 PUSH1 0x20 DUP3 ADD SWAP1 POP DUP2 DUP2 SUB PUSH1 0x0 DUP4 ADD MSTORE PUSH2 0x20A DUP2 PUSH2 0x1CE JUMP JUMPDEST SWAP1 POP SWAP2 SWAP1 POP JUMP JUMPDEST PUSH1 0x0 DUP2 SWAP1 POP SWAP2 SWAP1 POP JUMP JUMPDEST PUSH2 0x224 DUP2 PUSH2 0x211 JUMP JUMPDEST DUP3 MSTORE POP POP JUMP JUMPDEST DUP3 DUP2 DUP4 CALLDATACOPY PUSH1 0x0 DUP4 DUP4 ADD MSTORE POP POP POP JUMP JUMPDEST PUSH1 0x0 PUSH1 0x1F NOT PUSH1 0x1F DUP4 ADD AND SWAP1 POP SWAP2 SWAP1 POP JUMP JUMPDEST PUSH1 0x0 PUSH2 0x256 DUP4 DUP6 PUSH2 0x194 JUMP JUMPDEST SWAP4 POP PUSH2 0x263 DUP4 DUP6 DUP5 PUSH2 0x22A JUMP JUMPDEST PUSH2 0x26C DUP4 PUSH2 0x239 JUMP JUMPDEST DUP5 ADD SWAP1 POP SWAP4 SWAP3 POP POP POP JUMP JUMPDEST PUSH1 0x0 PUSH1 0x40 DUP3 ADD SWAP1 POP PUSH2 0x28C PUSH1 0x0 DUP4 ADD DUP7 PUSH2 0x21B JUMP JUMPDEST DUP2 DUP2 SUB PUSH1 0x20 DUP4 ADD MSTORE PUSH2 0x29F DUP2 DUP5 DUP7 PUSH2 0x24A JUMP JUMPDEST SWAP1 POP SWAP5 SWAP4 POP POP POP POP JUMP INVALID LOG2 PUSH5 0x6970667358 0x22 SLT KECCAK256 GASPRICE 0xFC 0xC4 0xA8 0x5D ADD 0xBA 0xB0 ADD SWAP16 0xD3 RETURNDATACOPY PUSH16 0xE0B208AEA588DF882E755C2A38B0B1EF DUP10 DUP4 SWAP6 PUSH5 0x736F6C6343 STOP ADDMOD EQ STOP CALLER "},"methodIdentifiers":{"pay(string)":"2b66d72e"}}}}}