{
  "_format": "hh-sol-artifact-1",
  "contractName": "Lock",
  "sourceName": "contracts/Lock.sol",
  "abi": [
    {
      "anonymous": false,
      "inputs": [
        {
          "indexed": true,
          "internalType": "address",
          "name": "sender",
          "type": "address"
        },
        {
          "indexed": true,
          "internalType": "address",
          "name": "recipient",
          "type": "address"
        },
        {
          "indexed": false,
          "internalType": "uint256",
          "name": "amount",
          "type": "uint256"
        },
        {
          "indexed": false,
          "internalType": "uint256",
          "name": "unlockTime",
          "type": "uint256"
        }
      ],
      "name": "Deposited",
      "type": "event"
    },
    {
      "anonymous": false,
      "inputs": [
        {
          "indexed": true,
          "internalType": "address",
          "name": "recipient",
          "type": "address"
        },
        {
          "indexed": false,
          "internalType": "uint256",
          "name": "amount",
          "type": "uint256"
        }
      ],
      "name": "Withdrawn",
      "type": "event"
    },
    {
      "inputs": [
        {
          "internalType": "address",
          "name": "_recipient",
          "type": "address"
        },
        {
          "internalType": "uint256",
          "name": "_unlockTime",
          "type": "uint256"
        }
      ],
      "name": "deposit",
      "outputs": [],
      "stateMutability": "payable",
      "type": "function"
    },
    {
      "inputs": [
        {
          "internalType": "address",
          "name": "user",
          "type": "address"
        }
      ],
      "name": "getLocks",
      "outputs": [
        {
          "components": [
            {
              "internalType": "address",
              "name": "sender",
              "type": "address"
            },
            {
              "internalType": "address",
              "name": "recipient",
              "type": "address"
            },
            {
              "internalType": "uint256",
              "name": "amount",
              "type": "uint256"
            },
            {
              "internalType": "uint256",
              "name": "unlockTime",
              "type": "uint256"
            },
            {
              "internalType": "bool",
              "name": "withdrawn",
              "type": "bool"
            }
          ],
          "internalType": "struct Lock.LockInfo[]",
          "name": "",
          "type": "tuple[]"
        }
      ],
      "stateMutability": "view",
      "type": "function"
    },
    {
      "inputs": [
        {
          "internalType": "address",
          "name": "",
          "type": "address"
        },
        {
          "internalType": "uint256",
          "name": "",
          "type": "uint256"
        }
      ],
      "name": "userLocks",
      "outputs": [
        {
          "internalType": "address",
          "name": "sender",
          "type": "address"
        },
        {
          "internalType": "address",
          "name": "recipient",
          "type": "address"
        },
        {
          "internalType": "uint256",
          "name": "amount",
          "type": "uint256"
        },
        {
          "internalType": "uint256",
          "name": "unlockTime",
          "type": "uint256"
        },
        {
          "internalType": "bool",
          "name": "withdrawn",
          "type": "bool"
        }
      ],
      "stateMutability": "view",
      "type": "function"
    },
    {
      "inputs": [
        {
          "internalType": "uint256",
          "name": "lockIndex",
          "type": "uint256"
        }
      ],
      "name": "withdraw",
      "outputs": [],
      "stateMutability": "nonpayable",
      "type": "function"
    }
  ],
  "bytecode": "0x6080604052348015600f57600080fd5b506110de8061001f6000396000f3fe60806040526004361061003f5760003560e01c80632e1a7d4d1461004457806347e7ef241461006d578063719f308914610089578063aa33fedb146100c6575b600080fd5b34801561005057600080fd5b5061006b6004803603810190610066919061096e565b610107565b005b610087600480360381019061008291906109f9565b61043b565b005b34801561009557600080fd5b506100b060048036038101906100ab9190610a39565b61071b565b6040516100bd9190610bb6565b60405180910390f35b3480156100d257600080fd5b506100ed60048036038101906100e891906109f9565b610893565b6040516100fe959493929190610c05565b60405180910390f35b6000803373ffffffffffffffffffffffffffffffffffffffff1673ffffffffffffffffffffffffffffffffffffffff16815260200190815260200160002080549050811061018a576040517f08c379a000000000000000000000000000000000000000000000000000000000815260040161018190610cb5565b60405180910390fd5b60008060003373ffffffffffffffffffffffffffffffffffffffff1673ffffffffffffffffffffffffffffffffffffffff16815260200190815260200160002082815481106101dc576101db610cd5565b5b906000526020600020906005020190508060010160009054906101000a900473ffffffffffffffffffffffffffffffffffffffff1673ffffffffffffffffffffffffffffffffffffffff163373ffffffffffffffffffffffffffffffffffffffff161461027e576040517f08c379a000000000000000000000000000000000000000000000000000000000815260040161027590610d50565b60405180910390fd5b80600301544210156102c5576040517f08c379a00000000000000000000000000000000000000000000000000000000081526004016102bc90610dbc565b60405180910390fd5b8060040160009054906101000a900460ff1615610317576040517f08c379a000000000000000000000000000000000000000000000000000000000815260040161030e90610e28565b60405180910390fd5b60018160040160006101000a81548160ff02191690831515021790555060003373ffffffffffffffffffffffffffffffffffffffff16826002015460405161035e90610e79565b60006040518083038185875af1925050503d806000811461039b576040519150601f19603f3d011682016040523d82523d6000602084013e6103a0565b606091505b50509050806103e4576040517f08c379a00000000000000000000000000000000000000000000000000000000081526004016103db90610eda565b60405180910390fd5b3373ffffffffffffffffffffffffffffffffffffffff167f7084f5476618d8e60b11ef0d7d3f06914655adb8793e28ff7f018d4c76d505d5836002015460405161042e9190610efa565b60405180910390a2505050565b600073ffffffffffffffffffffffffffffffffffffffff168273ffffffffffffffffffffffffffffffffffffffff16036104aa576040517f08c379a00000000000000000000000000000000000000000000000000000000081526004016104a190610f61565b60405180910390fd5b4281116104ec576040517f08c379a00000000000000000000000000000000000000000000000000000000081526004016104e390610ff3565b60405180910390fd5b6000341161052f576040517f08c379a00000000000000000000000000000000000000000000000000000000081526004016105269061105f565b60405180910390fd5b6000808373ffffffffffffffffffffffffffffffffffffffff1673ffffffffffffffffffffffffffffffffffffffff1681526020019081526020016000206040518060a001604052803373ffffffffffffffffffffffffffffffffffffffff1681526020018473ffffffffffffffffffffffffffffffffffffffff16815260200134815260200183815260200160001515815250908060018154018082558091505060019003906000526020600020906005020160009091909190915060008201518160000160006101000a81548173ffffffffffffffffffffffffffffffffffffffff021916908373ffffffffffffffffffffffffffffffffffffffff16021790555060208201518160010160006101000a81548173ffffffffffffffffffffffffffffffffffffffff021916908373ffffffffffffffffffffffffffffffffffffffff160217905550604082015181600201556060820151816003015560808201518160040160006101000a81548160ff02191690831515021790555050508173ffffffffffffffffffffffffffffffffffffffff163373ffffffffffffffffffffffffffffffffffffffff167ff5681f9d0db1b911ac18ee83d515a1cf1051853a9eae418316a2fdf7dea427c5348460405161070f92919061107f565b60405180910390a35050565b60606000808373ffffffffffffffffffffffffffffffffffffffff1673ffffffffffffffffffffffffffffffffffffffff168152602001908152602001600020805480602002602001604051908101604052809291908181526020016000905b8282101561088857838290600052602060002090600502016040518060a00160405290816000820160009054906101000a900473ffffffffffffffffffffffffffffffffffffffff1673ffffffffffffffffffffffffffffffffffffffff1673ffffffffffffffffffffffffffffffffffffffff1681526020016001820160009054906101000a900473ffffffffffffffffffffffffffffffffffffffff1673ffffffffffffffffffffffffffffffffffffffff1673ffffffffffffffffffffffffffffffffffffffff16815260200160028201548152602001600382015481526020016004820160009054906101000a900460ff1615151515815250508152602001906001019061077b565b505050509050919050565b600060205281600052604060002081815481106108af57600080fd5b9060005260206000209060050201600091509150508060000160009054906101000a900473ffffffffffffffffffffffffffffffffffffffff16908060010160009054906101000a900473ffffffffffffffffffffffffffffffffffffffff16908060020154908060030154908060040160009054906101000a900460ff16905085565b600080fd5b6000819050919050565b61094b81610938565b811461095657600080fd5b50565b60008135905061096881610942565b92915050565b60006020828403121561098457610983610933565b5b600061099284828501610959565b91505092915050565b600073ffffffffffffffffffffffffffffffffffffffff82169050919050565b60006109c68261099b565b9050919050565b6109d6816109bb565b81146109e157600080fd5b50565b6000813590506109f3816109cd565b92915050565b60008060408385031215610a1057610a0f610933565b5b6000610a1e858286016109e4565b9250506020610a2f85828601610959565b9150509250929050565b600060208284031215610a4f57610a4e610933565b5b6000610a5d848285016109e4565b91505092915050565b600081519050919050565b600082825260208201905092915050565b6000819050602082019050919050565b610a9b816109bb565b82525050565b610aaa81610938565b82525050565b60008115159050919050565b610ac581610ab0565b82525050565b60a082016000820151610ae16000850182610a92565b506020820151610af46020850182610a92565b506040820151610b076040850182610aa1565b506060820151610b1a6060850182610aa1565b506080820151610b2d6080850182610abc565b50505050565b6000610b3f8383610acb565b60a08301905092915050565b6000602082019050919050565b6000610b6382610a66565b610b6d8185610a71565b9350610b7883610a82565b8060005b83811015610ba9578151610b908882610b33565b9750610b9b83610b4b565b925050600181019050610b7c565b5085935050505092915050565b60006020820190508181036000830152610bd08184610b58565b905092915050565b610be1816109bb565b82525050565b610bf081610938565b82525050565b610bff81610ab0565b82525050565b600060a082019050610c1a6000830188610bd8565b610c276020830187610bd8565b610c346040830186610be7565b610c416060830185610be7565b610c4e6080830184610bf6565b9695505050505050565b600082825260208201905092915050565b7f496e76616c6964206c6f636b20696e6465780000000000000000000000000000600082015250565b6000610c9f601283610c58565b9150610caa82610c69565b602082019050919050565b60006020820190508181036000830152610cce81610c92565b9050919050565b7f4e487b7100000000000000000000000000000000000000000000000000000000600052603260045260246000fd5b7f4f6e6c7920726563697069656e742063616e2077697468647261770000000000600082015250565b6000610d3a601b83610c58565b9150610d4582610d04565b602082019050919050565b60006020820190508181036000830152610d6981610d2d565b9050919050565b7f546f6f206561726c7920746f2077697468647261770000000000000000000000600082015250565b6000610da6601583610c58565b9150610db182610d70565b602082019050919050565b60006020820190508181036000830152610dd581610d99565b9050919050565b7f416c72656164792077697468647261776e000000000000000000000000000000600082015250565b6000610e12601183610c58565b9150610e1d82610ddc565b602082019050919050565b60006020820190508181036000830152610e4181610e05565b9050919050565b600081905092915050565b50565b6000610e63600083610e48565b9150610e6e82610e53565b600082019050919050565b6000610e8482610e56565b9150819050919050565b7f5769746864726177616c206661696c6564000000000000000000000000000000600082015250565b6000610ec4601183610c58565b9150610ecf82610e8e565b602082019050919050565b60006020820190508181036000830152610ef381610eb7565b9050919050565b6000602082019050610f0f6000830184610be7565b92915050565b7f496e76616c696420726563697069656e74206164647265737300000000000000600082015250565b6000610f4b601983610c58565b9150610f5682610f15565b602082019050919050565b60006020820190508181036000830152610f7a81610f3e565b9050919050565b7f556e6c6f636b2074696d65206d75737420626520696e2074686520667574757260008201527f6500000000000000000000000000000000000000000000000000000000000000602082015250565b6000610fdd602183610c58565b9150610fe882610f81565b604082019050919050565b6000602082019050818103600083015261100c81610fd0565b9050919050565b7f4465706f736974206d7573742062652067726561746572207468616e20300000600082015250565b6000611049601e83610c58565b915061105482611013565b602082019050919050565b600060208201905081810360008301526110788161103c565b9050919050565b60006040820190506110946000830185610be7565b6110a16020830184610be7565b939250505056fea2646970667358221220dccdcefc54d13f24acd799bac7122f13ca56a1c4cc5debf5c99290611f8504bb64736f6c634300081c0033",
  "linkReferences": {},
  "deployedLinkReferences": {}
}